{
  "_format": "hh-sol-artifact-1",
  "contractName": "Raffle",
  "sourceName": "contracts/Raffle.sol",
  "abi": [
    {
      "inputs": [
        {
          "internalType": "address",
          "name": "vrfCoordinatorV2",
          "type": "address"
        },
        {
          "internalType": "uint256",
          "name": "enteranceFee",
          "type": "uint256"
        },
        {
          "internalType": "bytes32",
          "name": "gasLane",
          "type": "bytes32"
        },
        {
          "internalType": "uint64",
          "name": "subscriptionId",
          "type": "uint64"
        },
        {
          "internalType": "uint32",
          "name": "callbackGasLimit",
          "type": "uint32"
        },
        {
          "internalType": "uint256",
          "name": "interval",
          "type": "uint256"
        }
      ],
      "stateMutability": "nonpayable",
      "type": "constructor"
    },
    {
      "inputs": [
        {
          "internalType": "address",
          "name": "have",
          "type": "address"
        },
        {
          "internalType": "address",
          "name": "want",
          "type": "address"
        }
      ],
      "name": "OnlyCoordinatorCanFulfill",
      "type": "error"
    },
    {
      "inputs": [],
      "name": "Raffle__NotEnoughETHEntered",
      "type": "error"
    },
    {
      "inputs": [],
      "name": "Raffle__RaffleNotOpen",
      "type": "error"
    },
    {
      "inputs": [],
      "name": "Raffle__TransferFailed",
      "type": "error"
    },
    {
      "inputs": [
        {
          "internalType": "uint256",
          "name": "currentBalance",
          "type": "uint256"
        },
        {
          "internalType": "uint256",
          "name": "numPlayers",
          "type": "uint256"
        },
        {
          "internalType": "uint256",
          "name": "raffleState",
          "type": "uint256"
        }
      ],
      "name": "Raffle__UpkeepNotNeeded",
      "type": "error"
    },
    {
      "anonymous": false,
      "inputs": [
        {
          "indexed": true,
          "internalType": "address",
          "name": "player",
          "type": "address"
        }
      ],
      "name": "RaffleEntered",
      "type": "event"
    },
    {
      "anonymous": false,
      "inputs": [
        {
          "indexed": true,
          "internalType": "uint256",
          "name": "requestId",
          "type": "uint256"
        }
      ],
      "name": "RequestedRaffleWinner",
      "type": "event"
    },
    {
      "anonymous": false,
      "inputs": [
        {
          "indexed": true,
          "internalType": "address",
          "name": "player",
          "type": "address"
        }
      ],
      "name": "WinnerPicked",
      "type": "event"
    },
    {
      "inputs": [
        {
          "internalType": "bytes",
          "name": "",
          "type": "bytes"
        }
      ],
      "name": "checkUpkeep",
      "outputs": [
        {
          "internalType": "bool",
          "name": "upkeepNeeded",
          "type": "bool"
        },
        {
          "internalType": "bytes",
          "name": "",
          "type": "bytes"
        }
      ],
      "stateMutability": "nonpayable",
      "type": "function"
    },
    {
      "inputs": [],
      "name": "enterRaffle",
      "outputs": [],
      "stateMutability": "payable",
      "type": "function"
    },
    {
      "inputs": [],
      "name": "getEnteranceFee",
      "outputs": [
        {
          "internalType": "uint256",
          "name": "",
          "type": "uint256"
        }
      ],
      "stateMutability": "view",
      "type": "function"
    },
    {
      "inputs": [],
      "name": "getInterval",
      "outputs": [
        {
          "internalType": "uint256",
          "name": "",
          "type": "uint256"
        }
      ],
      "stateMutability": "view",
      "type": "function"
    },
    {
      "inputs": [],
      "name": "getLatestTimeStamp",
      "outputs": [
        {
          "internalType": "uint256",
          "name": "",
          "type": "uint256"
        }
      ],
      "stateMutability": "view",
      "type": "function"
    },
    {
      "inputs": [],
      "name": "getNumOfPlayers",
      "outputs": [
        {
          "internalType": "uint256",
          "name": "",
          "type": "uint256"
        }
      ],
      "stateMutability": "view",
      "type": "function"
    },
    {
      "inputs": [],
      "name": "getNumWords",
      "outputs": [
        {
          "internalType": "uint256",
          "name": "",
          "type": "uint256"
        }
      ],
      "stateMutability": "pure",
      "type": "function"
    },
    {
      "inputs": [
        {
          "internalType": "uint256",
          "name": "index",
          "type": "uint256"
        }
      ],
      "name": "getPlayer",
      "outputs": [
        {
          "internalType": "address",
          "name": "",
          "type": "address"
        }
      ],
      "stateMutability": "view",
      "type": "function"
    },
    {
      "inputs": [],
      "name": "getRaffleState",
      "outputs": [
        {
          "internalType": "enum Raffle.RaffleState",
          "name": "",
          "type": "uint8"
        }
      ],
      "stateMutability": "view",
      "type": "function"
    },
    {
      "inputs": [],
      "name": "getRecentWinner",
      "outputs": [
        {
          "internalType": "address",
          "name": "",
          "type": "address"
        }
      ],
      "stateMutability": "view",
      "type": "function"
    },
    {
      "inputs": [],
      "name": "getSubscriptionId",
      "outputs": [
        {
          "internalType": "uint64",
          "name": "",
          "type": "uint64"
        }
      ],
      "stateMutability": "view",
      "type": "function"
    },
    {
      "inputs": [
        {
          "internalType": "bytes",
          "name": "",
          "type": "bytes"
        }
      ],
      "name": "performUpkeep",
      "outputs": [],
      "stateMutability": "nonpayable",
      "type": "function"
    },
    {
      "inputs": [
        {
          "internalType": "uint256",
          "name": "requestId",
          "type": "uint256"
        },
        {
          "internalType": "uint256[]",
          "name": "randomWords",
          "type": "uint256[]"
        }
      ],
      "name": "rawFulfillRandomWords",
      "outputs": [],
      "stateMutability": "nonpayable",
      "type": "function"
    }
  ],
  "bytecode": "0x6101606040523480156200001257600080fd5b506040516200187e3803806200187e833981810160405281019062000038919062000294565b858073ffffffffffffffffffffffffffffffffffffffff1660808173ffffffffffffffffffffffffffffffffffffffff1681525050508573ffffffffffffffffffffffffffffffffffffffff1660a08173ffffffffffffffffffffffffffffffffffffffff16815250508360e081815250508461014081815250508267ffffffffffffffff1660c08167ffffffffffffffff16815250508163ffffffff166101008163ffffffff16815250506000600360006101000a81548160ff021916908360018111156200010d576200010c62000330565b5b0217905550426000819055508061012081815250505050505050506200035f565b600080fd5b600073ffffffffffffffffffffffffffffffffffffffff82169050919050565b6000620001608262000133565b9050919050565b620001728162000153565b81146200017e57600080fd5b50565b600081519050620001928162000167565b92915050565b6000819050919050565b620001ad8162000198565b8114620001b957600080fd5b50565b600081519050620001cd81620001a2565b92915050565b6000819050919050565b620001e881620001d3565b8114620001f457600080fd5b50565b6000815190506200020881620001dd565b92915050565b600067ffffffffffffffff82169050919050565b6200022d816200020e565b81146200023957600080fd5b50565b6000815190506200024d8162000222565b92915050565b600063ffffffff82169050919050565b6200026e8162000253565b81146200027a57600080fd5b50565b6000815190506200028e8162000263565b92915050565b60008060008060008060c08789031215620002b457620002b36200012e565b5b6000620002c489828a0162000181565b9650506020620002d789828a01620001bc565b9550506040620002ea89828a01620001f7565b9450506060620002fd89828a016200023c565b93505060806200031089828a016200027d565b92505060a06200032389828a01620001bc565b9150509295509295509295565b7f4e487b7100000000000000000000000000000000000000000000000000000000600052602160045260246000fd5b60805160a05160c05160e0516101005161012051610140516114a8620003d6600039600081816103cf01526107640152600081816107e701526108900152600061067d0152600061063901526000818161065a01526108b8015260006105fd01526000818161030f015261036301526114a86000f3fe6080604052600436106100c25760003560e01c8063535bf50f1161007f5780636e04ff0d116100595780636e04ff0d1461022557806391ad27b414610263578063de3d9fb71461028e578063e55ae4e8146102b9576100c2565b8063535bf50f146101a457806353a2c19a146101cf578063565429de146101fa576100c2565b8063115cbaf5146100c75780631fe543e3146100f25780632cfcc5391461011b578063320229eb146101255780634585e33b14610150578063473f1ddc14610179575b600080fd5b3480156100d357600080fd5b506100dc6102f6565b6040516100e99190610c75565b60405180910390f35b3480156100fe57600080fd5b5061011960048036038101906101149190610e33565b61030d565b005b6101236103cd565b005b34801561013157600080fd5b5061013a61053c565b6040516101479190610e9e565b60405180910390f35b34801561015c57600080fd5b5061017760048036038101906101729190610f14565b610545565b005b34801561018557600080fd5b5061018e610736565b60405161019b9190610fa2565b60405180910390f35b3480156101b057600080fd5b506101b9610760565b6040516101c69190610e9e565b60405180910390f35b3480156101db57600080fd5b506101e4610788565b6040516101f19190610e9e565b60405180910390f35b34801561020657600080fd5b5061020f610797565b60405161021c9190610e9e565b60405180910390f35b34801561023157600080fd5b5061024c60048036038101906102479190611072565b6107a4565b60405161025a929190611155565b60405180910390f35b34801561026f57600080fd5b5061027861088c565b6040516102859190610e9e565b60405180910390f35b34801561029a57600080fd5b506102a36108b4565b6040516102b091906111a8565b60405180910390f35b3480156102c557600080fd5b506102e060048036038101906102db91906111c3565b6108dc565b6040516102ed9190610fa2565b60405180910390f35b6000600360009054906101000a900460ff16905090565b7f000000000000000000000000000000000000000000000000000000000000000073ffffffffffffffffffffffffffffffffffffffff163373ffffffffffffffffffffffffffffffffffffffff16146103bf57337f00000000000000000000000000000000000000000000000000000000000000006040517f1cf993f40000000000000000000000000000000000000000000000000000000081526004016103b69291906111f0565b60405180910390fd5b6103c98282610924565b5050565b7f0000000000000000000000000000000000000000000000000000000000000000341015610427576040517fbd4e069500000000000000000000000000000000000000000000000000000000815260040160405180910390fd5b6000600181111561043b5761043a610bfe565b5b600360009054906101000a900460ff16600181111561045d5761045c610bfe565b5b14610494576040517fd24a271400000000000000000000000000000000000000000000000000000000815260040160405180910390fd5b6002339080600181540180825580915050600190039060005260206000200160009091909190916101000a81548173ffffffffffffffffffffffffffffffffffffffff021916908373ffffffffffffffffffffffffffffffffffffffff1602179055503373ffffffffffffffffffffffffffffffffffffffff167f634f3211e3a4e43fee5a21ad9f87ca153b300fc78b1c557a2057dbe9c63bcb4760405160405180910390a2565b60008054905090565b600061055f604051806020016040528060008152506107a4565b509050806105ce5747600280549050600360009054906101000a900460ff1660018111156105905761058f610bfe565b5b6040517f584327aa0000000000000000000000000000000000000000000000000000000081526004016105c593929190611219565b60405180910390fd5b6001600360006101000a81548160ff021916908360018111156105f4576105f3610bfe565b5b021790555060007f000000000000000000000000000000000000000000000000000000000000000073ffffffffffffffffffffffffffffffffffffffff16635d3b1d307f00000000000000000000000000000000000000000000000000000000000000007f000000000000000000000000000000000000000000000000000000000000000060037f000000000000000000000000000000000000000000000000000000000000000060016040518663ffffffff1660e01b81526004016106be9594939291906112a5565b6020604051808303816000875af11580156106dd573d6000803e3d6000fd5b505050506040513d601f19601f82011682018060405250810190610701919061130d565b9050807fcd6e45c8998311cab7e9d4385596cac867e20a0587194b954fa3a731c93ce78b60405160405180910390a250505050565b6000600160009054906101000a900473ffffffffffffffffffffffffffffffffffffffff16905090565b60007f0000000000000000000000000000000000000000000000000000000000000000905090565b6000600163ffffffff16905090565b6000600280549050905090565b600060606000600360009054906101000a900460ff1660018111156107cc576107cb610bfe565b5b600060018111156107e0576107df610bfe565b5b14905060007f0000000000000000000000000000000000000000000000000000000000000000600054426108149190611369565b119050600080600280549050119050600080471190508380156108345750825b801561083d5750815b80156108465750805b9550856040518060400160405280600381526020017f30783000000000000000000000000000000000000000000000000000000000008152509550955050505050915091565b60007f0000000000000000000000000000000000000000000000000000000000000000905090565b60007f0000000000000000000000000000000000000000000000000000000000000000905090565b6000600282815481106108f2576108f161139d565b5b9060005260206000200160009054906101000a900473ffffffffffffffffffffffffffffffffffffffff169050919050565b6000600280549050826000815181106109405761093f61139d565b5b602002602001015161095291906113fb565b905060006002828154811061096a5761096961139d565b5b9060005260206000200160009054906101000a900473ffffffffffffffffffffffffffffffffffffffff16905080600160006101000a81548173ffffffffffffffffffffffffffffffffffffffff021916908373ffffffffffffffffffffffffffffffffffffffff160217905550600067ffffffffffffffff8111156109f3576109f2610cf0565b5b604051908082528060200260200182016040528015610a215781602001602082028036833780820191505090505b5060029080519060200190610a37929190610b57565b504260008190555060008173ffffffffffffffffffffffffffffffffffffffff1647604051610a659061145d565b60006040518083038185875af1925050503d8060008114610aa2576040519150601f19603f3d011682016040523d82523d6000602084013e610aa7565b606091505b5050905080610ae2576040517fa1d04b3900000000000000000000000000000000000000000000000000000000815260040160405180910390fd5b6000600360006101000a81548160ff02191690836001811115610b0857610b07610bfe565b5b02179055508173ffffffffffffffffffffffffffffffffffffffff167f5b690ec4a06fe979403046eaeea5b3ce38524683c3001f662c8b5a829632f7df60405160405180910390a25050505050565b828054828255906000526020600020908101928215610bd0579160200282015b82811115610bcf5782518260006101000a81548173ffffffffffffffffffffffffffffffffffffffff021916908373ffffffffffffffffffffffffffffffffffffffff16021790555091602001919060010190610b77565b5b509050610bdd9190610be1565b5090565b5b80821115610bfa576000816000905550600101610be2565b5090565b7f4e487b7100000000000000000000000000000000000000000000000000000000600052602160045260246000fd5b60028110610c3e57610c3d610bfe565b5b50565b6000819050610c4f82610c2d565b919050565b6000610c5f82610c41565b9050919050565b610c6f81610c54565b82525050565b6000602082019050610c8a6000830184610c66565b92915050565b6000604051905090565b600080fd5b600080fd5b6000819050919050565b610cb781610ca4565b8114610cc257600080fd5b50565b600081359050610cd481610cae565b92915050565b600080fd5b6000601f19601f8301169050919050565b7f4e487b7100000000000000000000000000000000000000000000000000000000600052604160045260246000fd5b610d2882610cdf565b810181811067ffffffffffffffff82111715610d4757610d46610cf0565b5b80604052505050565b6000610d5a610c90565b9050610d668282610d1f565b919050565b600067ffffffffffffffff821115610d8657610d85610cf0565b5b602082029050602081019050919050565b600080fd5b6000610daf610daa84610d6b565b610d50565b90508083825260208201905060208402830185811115610dd257610dd1610d97565b5b835b81811015610dfb5780610de78882610cc5565b845260208401935050602081019050610dd4565b5050509392505050565b600082601f830112610e1a57610e19610cda565b5b8135610e2a848260208601610d9c565b91505092915050565b60008060408385031215610e4a57610e49610c9a565b5b6000610e5885828601610cc5565b925050602083013567ffffffffffffffff811115610e7957610e78610c9f565b5b610e8585828601610e05565b9150509250929050565b610e9881610ca4565b82525050565b6000602082019050610eb36000830184610e8f565b92915050565b600080fd5b60008083601f840112610ed457610ed3610cda565b5b8235905067ffffffffffffffff811115610ef157610ef0610eb9565b5b602083019150836001820283011115610f0d57610f0c610d97565b5b9250929050565b60008060208385031215610f2b57610f2a610c9a565b5b600083013567ffffffffffffffff811115610f4957610f48610c9f565b5b610f5585828601610ebe565b92509250509250929050565b600073ffffffffffffffffffffffffffffffffffffffff82169050919050565b6000610f8c82610f61565b9050919050565b610f9c81610f81565b82525050565b6000602082019050610fb76000830184610f93565b92915050565b600080fd5b600067ffffffffffffffff821115610fdd57610fdc610cf0565b5b610fe682610cdf565b9050602081019050919050565b82818337600083830152505050565b600061101561101084610fc2565b610d50565b90508281526020810184848401111561103157611030610fbd565b5b61103c848285610ff3565b509392505050565b600082601f83011261105957611058610cda565b5b8135611069848260208601611002565b91505092915050565b60006020828403121561108857611087610c9a565b5b600082013567ffffffffffffffff8111156110a6576110a5610c9f565b5b6110b284828501611044565b91505092915050565b60008115159050919050565b6110d0816110bb565b82525050565b600081519050919050565b600082825260208201905092915050565b60005b838110156111105780820151818401526020810190506110f5565b60008484015250505050565b6000611127826110d6565b61113181856110e1565b93506111418185602086016110f2565b61114a81610cdf565b840191505092915050565b600060408201905061116a60008301856110c7565b818103602083015261117c818461111c565b90509392505050565b600067ffffffffffffffff82169050919050565b6111a281611185565b82525050565b60006020820190506111bd6000830184611199565b92915050565b6000602082840312156111d9576111d8610c9a565b5b60006111e784828501610cc5565b91505092915050565b60006040820190506112056000830185610f93565b6112126020830184610f93565b9392505050565b600060608201905061122e6000830186610e8f565b61123b6020830185610e8f565b6112486040830184610e8f565b949350505050565b6000819050919050565b61126381611250565b82525050565b600061ffff82169050919050565b61128081611269565b82525050565b600063ffffffff82169050919050565b61129f81611286565b82525050565b600060a0820190506112ba600083018861125a565b6112c76020830187611199565b6112d46040830186611277565b6112e16060830185611296565b6112ee6080830184611296565b9695505050505050565b60008151905061130781610cae565b92915050565b60006020828403121561132357611322610c9a565b5b6000611331848285016112f8565b91505092915050565b7f4e487b7100000000000000000000000000000000000000000000000000000000600052601160045260246000fd5b600061137482610ca4565b915061137f83610ca4565b92508282039050818111156113975761139661133a565b5b92915050565b7f4e487b7100000000000000000000000000000000000000000000000000000000600052603260045260246000fd5b7f4e487b7100000000000000000000000000000000000000000000000000000000600052601260045260246000fd5b600061140682610ca4565b915061141183610ca4565b925082611421576114206113cc565b5b828206905092915050565b600081905092915050565b50565b600061144760008361142c565b915061145282611437565b600082019050919050565b60006114688261143a565b915081905091905056fea2646970667358221220b663f16fe692e3298035fde3df4e64f9a404016ff17f4f7467bea9bc2291181364736f6c63430008110033",
  "linkReferences": {},
  "deployedLinkReferences": {}
}