{
  "_format": "hh-sol-artifact-1",
  "contractName": "Raffle",
  "sourceName": "contracts/Raffle.sol",
  "abi": [
    {
      "inputs": [
        {
          "internalType": "address",
          "name": "vrfCoordinatorV2",
          "type": "address"
        },
        {
          "internalType": "uint256",
          "name": "enteranceFee",
          "type": "uint256"
        },
        {
          "internalType": "bytes32",
          "name": "gasLane",
          "type": "bytes32"
        },
        {
          "internalType": "uint64",
          "name": "subscriptionId",
          "type": "uint64"
        },
        {
          "internalType": "uint32",
          "name": "callbackGasLimit",
          "type": "uint32"
        },
        {
          "internalType": "uint256",
          "name": "interval",
          "type": "uint256"
        }
      ],
      "stateMutability": "nonpayable",
      "type": "constructor"
    },
    {
      "inputs": [
        {
          "internalType": "address",
          "name": "have",
          "type": "address"
        },
        {
          "internalType": "address",
          "name": "want",
          "type": "address"
        }
      ],
      "name": "OnlyCoordinatorCanFulfill",
      "type": "error"
    },
    {
      "inputs": [],
      "name": "Raffle__NotEnoughETHEntered",
      "type": "error"
    },
    {
      "inputs": [],
      "name": "Raffle__RaffleNotOpen",
      "type": "error"
    },
    {
      "inputs": [],
      "name": "Raffle__TransferFailed",
      "type": "error"
    },
    {
      "inputs": [
        {
          "internalType": "uint256",
          "name": "currentBalance",
          "type": "uint256"
        },
        {
          "internalType": "uint256",
          "name": "numPlayers",
          "type": "uint256"
        },
        {
          "internalType": "uint256",
          "name": "raffleState",
          "type": "uint256"
        }
      ],
      "name": "Raffle__UpkeepNotNeeded",
      "type": "error"
    },
    {
      "anonymous": false,
      "inputs": [
        {
          "indexed": true,
          "internalType": "address",
          "name": "player",
          "type": "address"
        }
      ],
      "name": "RaffleEntered",
      "type": "event"
    },
    {
      "anonymous": false,
      "inputs": [
        {
          "indexed": true,
          "internalType": "uint256",
          "name": "requestId",
          "type": "uint256"
        }
      ],
      "name": "RequestedRaffleWinner",
      "type": "event"
    },
    {
      "anonymous": false,
      "inputs": [
        {
          "indexed": true,
          "internalType": "address",
          "name": "player",
          "type": "address"
        }
      ],
      "name": "WinnerPicked",
      "type": "event"
    },
    {
      "inputs": [
        {
          "internalType": "bytes",
          "name": "",
          "type": "bytes"
        }
      ],
      "name": "checkUpkeep",
      "outputs": [
        {
          "internalType": "bool",
          "name": "upkeepNeeded",
          "type": "bool"
        },
        {
          "internalType": "bytes",
          "name": "",
          "type": "bytes"
        }
      ],
      "stateMutability": "nonpayable",
      "type": "function"
    },
    {
      "inputs": [],
      "name": "enterRaffle",
      "outputs": [],
      "stateMutability": "payable",
      "type": "function"
    },
    {
      "inputs": [],
      "name": "getEnteranceFee",
      "outputs": [
        {
          "internalType": "uint256",
          "name": "",
          "type": "uint256"
        }
      ],
      "stateMutability": "view",
      "type": "function"
    },
    {
      "inputs": [],
      "name": "getInterval",
      "outputs": [
        {
          "internalType": "uint256",
          "name": "",
          "type": "uint256"
        }
      ],
      "stateMutability": "view",
      "type": "function"
    },
    {
      "inputs": [],
      "name": "getLatestTimeStamp",
      "outputs": [
        {
          "internalType": "uint256",
          "name": "",
          "type": "uint256"
        }
      ],
      "stateMutability": "view",
      "type": "function"
    },
    {
      "inputs": [],
      "name": "getNumOfPlayers",
      "outputs": [
        {
          "internalType": "uint256",
          "name": "",
          "type": "uint256"
        }
      ],
      "stateMutability": "view",
      "type": "function"
    },
    {
      "inputs": [],
      "name": "getNumWords",
      "outputs": [
        {
          "internalType": "uint256",
          "name": "",
          "type": "uint256"
        }
      ],
      "stateMutability": "pure",
      "type": "function"
    },
    {
      "inputs": [
        {
          "internalType": "uint256",
          "name": "index",
          "type": "uint256"
        }
      ],
      "name": "getPlayer",
      "outputs": [
        {
          "internalType": "address",
          "name": "",
          "type": "address"
        }
      ],
      "stateMutability": "view",
      "type": "function"
    },
    {
      "inputs": [],
      "name": "getRaffleState",
      "outputs": [
        {
          "internalType": "enum Raffle.RaffleState",
          "name": "",
          "type": "uint8"
        }
      ],
      "stateMutability": "view",
      "type": "function"
    },
    {
      "inputs": [],
      "name": "getRecentWinner",
      "outputs": [
        {
          "internalType": "address",
          "name": "",
          "type": "address"
        }
      ],
      "stateMutability": "view",
      "type": "function"
    },
    {
      "inputs": [],
      "name": "getSubscriptionId",
      "outputs": [
        {
          "internalType": "uint64",
          "name": "",
          "type": "uint64"
        }
      ],
      "stateMutability": "view",
      "type": "function"
    },
    {
      "inputs": [
        {
          "internalType": "bytes",
          "name": "",
          "type": "bytes"
        }
      ],
      "name": "performUpkeep",
      "outputs": [],
      "stateMutability": "nonpayable",
      "type": "function"
    },
    {
      "inputs": [
        {
          "internalType": "uint256",
          "name": "requestId",
          "type": "uint256"
        },
        {
          "internalType": "uint256[]",
          "name": "randomWords",
          "type": "uint256[]"
        }
      ],
      "name": "rawFulfillRandomWords",
      "outputs": [],
      "stateMutability": "nonpayable",
      "type": "function"
    }
  ],
  "bytecode": "0x6101606040523480156200001257600080fd5b506040516200202538038062002025833981810160405281019062000038919062000393565b858073ffffffffffffffffffffffffffffffffffffffff1660808173ffffffffffffffffffffffffffffffffffffffff1681525050506200008a67745d665abb0688c260c01b6200022a60201b60201c565b620000a667f903f616c15c243d60c01b6200022a60201b60201c565b8573ffffffffffffffffffffffffffffffffffffffff1660a08173ffffffffffffffffffffffffffffffffffffffff1681525050620000f667ef5f2957f93016ab60c01b6200022a60201b60201c565b8360e081815250506200011a6765b9f3bbfc0f18af60c01b6200022a60201b60201c565b8461014081815250506200013f67f93fe82f8226009360c01b6200022a60201b60201c565b8267ffffffffffffffff1660c08167ffffffffffffffff16815250506200017767c2b7f09430082ac960c01b6200022a60201b60201c565b8163ffffffff166101008163ffffffff1681525050620001a8673bd2d72930e61f0860c01b6200022a60201b60201c565b6000600360006101000a81548160ff02191690836001811115620001d157620001d06200042f565b5b0217905550620001f267d344cf095f5d406660c01b6200022a60201b60201c565b426000819055506200021567f7870e0089dfae5e60c01b6200022a60201b60201c565b8061012081815250505050505050506200045e565b50565b600080fd5b600073ffffffffffffffffffffffffffffffffffffffff82169050919050565b60006200025f8262000232565b9050919050565b620002718162000252565b81146200027d57600080fd5b50565b600081519050620002918162000266565b92915050565b6000819050919050565b620002ac8162000297565b8114620002b857600080fd5b50565b600081519050620002cc81620002a1565b92915050565b6000819050919050565b620002e781620002d2565b8114620002f357600080fd5b50565b6000815190506200030781620002dc565b92915050565b600067ffffffffffffffff82169050919050565b6200032c816200030d565b81146200033857600080fd5b50565b6000815190506200034c8162000321565b92915050565b600063ffffffff82169050919050565b6200036d8162000352565b81146200037957600080fd5b50565b6000815190506200038d8162000362565b92915050565b60008060008060008060c08789031215620003b357620003b26200022d565b5b6000620003c389828a0162000280565b9650506020620003d689828a01620002bb565b9550506040620003e989828a01620002f6565b9450506060620003fc89828a016200033b565b93505060806200040f89828a016200037c565b92505060a06200042289828a01620002bb565b9150509295509295509295565b7f4e487b7100000000000000000000000000000000000000000000000000000000600052602160045260246000fd5b60805160a05160c05160e051610100516101205161014051611b50620004d5600039600081816104470152610a85015260008181610be40152610d55015260006108fe015260006108ba0152600081816108db0152610db90152600061087e01526000818161034b015261039f0152611b506000f3fe6080604052600436106100c25760003560e01c8063535bf50f1161007f5780636e04ff0d116100595780636e04ff0d1461022557806391ad27b414610263578063de3d9fb71461028e578063e55ae4e8146102b9576100c2565b8063535bf50f146101a457806353a2c19a146101cf578063565429de146101fa576100c2565b8063115cbaf5146100c75780631fe543e3146100f25780632cfcc5391461011b578063320229eb146101255780634585e33b14610150578063473f1ddc14610179575b600080fd5b3480156100d357600080fd5b506100dc6102f6565b6040516100e9919061131d565b60405180910390f35b3480156100fe57600080fd5b50610119600480360381019061011491906114db565b610349565b005b610123610409565b005b34801561013157600080fd5b5061013a6106a4565b6040516101479190611546565b60405180910390f35b34801561015c57600080fd5b50610177600480360381019061017291906115bc565b6106ea565b005b34801561018557600080fd5b5061018e6109df565b60405161019b919061164a565b60405180910390f35b3480156101b057600080fd5b506101b9610a45565b6040516101c69190611546565b60405180910390f35b3480156101db57600080fd5b506101e4610aa9565b6040516101f19190611546565b60405180910390f35b34801561020657600080fd5b5061020f610af4565b60405161021c9190611546565b60405180910390f35b34801561023157600080fd5b5061024c6004803603810190610247919061171a565b610b3d565b60405161025a9291906117fd565b60405180910390f35b34801561026f57600080fd5b50610278610d15565b6040516102859190611546565b60405180910390f35b34801561029a57600080fd5b506102a3610d79565b6040516102b09190611850565b60405180910390f35b3480156102c557600080fd5b506102e060048036038101906102db919061186b565b610ddd565b6040516102ed919061164a565b60405180910390f35b600061030c670918e206fc2db27960c01b610e61565b61032067bc88370a724b060c60c01b610e61565b610334679438d1b3ef98ac7260c01b610e61565b600360009054906101000a900460ff16905090565b7f000000000000000000000000000000000000000000000000000000000000000073ffffffffffffffffffffffffffffffffffffffff163373ffffffffffffffffffffffffffffffffffffffff16146103fb57337f00000000000000000000000000000000000000000000000000000000000000006040517f1cf993f40000000000000000000000000000000000000000000000000000000081526004016103f2929190611898565b60405180910390fd5b6104058282610e64565b5050565b61041d678197e8c17874dda160c01b610e61565b61043167a70eae80fa3d1a2260c01b610e61565b61044567194a7753e7bea2f960c01b610e61565b7f00000000000000000000000000000000000000000000000000000000000000003410156104c7576104816781686c9f83d9542a60c01b610e61565b6104956769fc3469830b9aaf60c01b610e61565b6040517fbd4e069500000000000000000000000000000000000000000000000000000000815260040160405180910390fd5b6104db67729e6716d54cee4560c01b610e61565b6104ef67595b3d467e87154460c01b610e61565b61050367386af1db2dec540760c01b610e61565b60006001811115610517576105166112a6565b5b600360009054906101000a900460ff166001811115610539576105386112a6565b5b1461059857610552670bb99aa8823f207a60c01b610e61565b610566677b7a5b4c419ab81660c01b610e61565b6040517fd24a271400000000000000000000000000000000000000000000000000000000815260040160405180910390fd5b6105ac67ff27cb9c87cedd1e60c01b610e61565b6105c06731b0a8841fcd819060c01b610e61565b6105d467a1bbd838a4131dc260c01b610e61565b6002339080600181540180825580915050600190039060005260206000200160009091909190916101000a81548173ffffffffffffffffffffffffffffffffffffffff021916908373ffffffffffffffffffffffffffffffffffffffff16021790555061064b671e562e39e25de71e60c01b610e61565b61065f67144cb390480e634160c01b610e61565b3373ffffffffffffffffffffffffffffffffffffffff167f634f3211e3a4e43fee5a21ad9f87ca153b300fc78b1c557a2057dbe9c63bcb4760405160405180910390a2565b60006106ba679effd99af085e3d660c01b610e61565b6106ce671f8ee57c1ccabafa60c01b610e61565b6106e267646617d42b6cb80b60c01b610e61565b600054905090565b6106fe67094a53faed7962d260c01b610e61565b61071267dcaf1aa5f3cd058460c01b610e61565b6107266774e4e371dd0905df60c01b610e61565b600061074060405180602001604052806000815250610b3d565b50905061075767c732cb50c722815660c01b610e61565b61076b679fb1a15b2a20d37e60c01b610e61565b806107ff57610784679239e114dbad863c60c01b610e61565b61079867d3341e5279cd4f5860c01b610e61565b47600280549050600360009054906101000a900460ff1660018111156107c1576107c06112a6565b5b6040517f584327aa0000000000000000000000000000000000000000000000000000000081526004016107f6939291906118c1565b60405180910390fd5b6108136799f81343a07f86f860c01b610e61565b610827677cfd4e46eb35275560c01b610e61565b6001600360006101000a81548160ff0219169083600181111561084d5761084c6112a6565b5b0217905550610866676d650d6585d23ce360c01b610e61565b61087a67d9f94b58d57d079460c01b610e61565b60007f000000000000000000000000000000000000000000000000000000000000000073ffffffffffffffffffffffffffffffffffffffff16635d3b1d307f00000000000000000000000000000000000000000000000000000000000000007f000000000000000000000000000000000000000000000000000000000000000060037f000000000000000000000000000000000000000000000000000000000000000060016040518663ffffffff1660e01b815260040161093f95949392919061194d565b6020604051808303816000875af115801561095e573d6000803e3d6000fd5b505050506040513d601f19601f8201168201806040525081019061098291906119b5565b905061099867028be440fb0564ed60c01b610e61565b6109ac67416108fd0ae762b460c01b610e61565b807fcd6e45c8998311cab7e9d4385596cac867e20a0587194b954fa3a731c93ce78b60405160405180910390a250505050565b60006109f56711d1b903451fa29560c01b610e61565b610a0967a4b05f4e12202e0960c01b610e61565b610a1d6737edf39fa36a9adb60c01b610e61565b600160009054906101000a900473ffffffffffffffffffffffffffffffffffffffff16905090565b6000610a5b67dfb7ba6c59301e0260c01b610e61565b610a6f679cb2e5671dc6c2c560c01b610e61565b610a836726a5f9a3be2ad44360c01b610e61565b7f0000000000000000000000000000000000000000000000000000000000000000905090565b6000610abf67e499c2aa6fa808d960c01b610e61565b610ad367ee6d54eae8cdbb9f60c01b610e61565b610ae76746aa3816620c935860c01b610e61565b600163ffffffff16905090565b6000610b0a67cfa33c4f7a54788b60c01b610e61565b610b1e67a56c8bf0f32a29b860c01b610e61565b610b326782f8ab04b189621a60c01b610e61565b600280549050905090565b60006060610b55677c410958c74499be60c01b610e61565b610b6967a55b3caa3874861a60c01b610e61565b610b7d671daf2d5449f27ff760c01b610e61565b6000600360009054906101000a900460ff166001811115610ba157610ba06112a6565b5b60006001811115610bb557610bb46112a6565b5b149050610bcc6766df16e3f9953c8e60c01b610e61565b610be0673ebbda2b712a66ce60c01b610e61565b60007f000000000000000000000000000000000000000000000000000000000000000060005442610c119190611a11565b119050610c28678d1da65c03c2121960c01b610e61565b610c3c67bf50549fe20f4b8560c01b610e61565b600080600280549050119050610c5c67d8f4969ee0bad85260c01b610e61565b610c706749fa8e5789c50dbc60c01b610e61565b60008047119050610c8b6750c3d8fa24fe0eb960c01b610e61565b838015610c955750825b8015610c9e5750815b8015610ca75750805b9550610cbd6752e1a450a5a4ea9960c01b610e61565b610cd16718660a2738cc61c460c01b610e61565b856040518060400160405280600381526020017f30783000000000000000000000000000000000000000000000000000000000008152509550955050505050915091565b6000610d2b67655a5301c792331a60c01b610e61565b610d3f6736caec11d4a1620b60c01b610e61565b610d53671d51db54b1c370bd60c01b610e61565b7f0000000000000000000000000000000000000000000000000000000000000000905090565b6000610d8f67048c2c62a74a9d1f60c01b610e61565b610da367aa9927c9e0bdf11560c01b610e61565b610db7671f12910319dbb25560c01b610e61565b7f0000000000000000000000000000000000000000000000000000000000000000905090565b6000610df3672801aca8558c51ea60c01b610e61565b610e076740c0a9e9dbaf0c6560c01b610e61565b610e1b67797511f38755aeab60c01b610e61565b60028281548110610e2f57610e2e611a45565b5b9060005260206000200160009054906101000a900473ffffffffffffffffffffffffffffffffffffffff169050919050565b50565b610e78672d7dcc4f82ef593e60c01b610e61565b610e8c67e8dc3b3e9d58117f60c01b610e61565b610ea0673b2a2fa2e186336260c01b610e61565b600060028054905082600081518110610ebc57610ebb611a45565b5b6020026020010151610ece9190611aa3565b9050610ee467b4a56f15d858734b60c01b610e61565b610ef867caf28d0a858a49fd60c01b610e61565b600060028281548110610f0e57610f0d611a45565b5b9060005260206000200160009054906101000a900473ffffffffffffffffffffffffffffffffffffffff169050610f4f6737bede10003b3c2860c01b610e61565b80600160006101000a81548173ffffffffffffffffffffffffffffffffffffffff021916908373ffffffffffffffffffffffffffffffffffffffff160217905550610fa46754a954ce614415e960c01b610e61565b600067ffffffffffffffff811115610fbf57610fbe611398565b5b604051908082528060200260200182016040528015610fed5781602001602082028036833780820191505090505b50600290805190602001906110039291906111ff565b5061101867f0ec7aefc3eb481360c01b610e61565b42600081905550611033670bf738041f78bb2060c01b610e61565b61104767e50f6cc7d81fcfeb60c01b610e61565b60008173ffffffffffffffffffffffffffffffffffffffff164760405161106d90611b05565b60006040518083038185875af1925050503d80600081146110aa576040519150601f19603f3d011682016040523d82523d6000602084013e6110af565b606091505b505090506110c76756588f3c2cb2665760c01b610e61565b6110db67ff7b4be2ab554a9660c01b610e61565b8061113a576110f467ceddf1fe1fd7672760c01b610e61565b6111086783dac0ed8d3febff60c01b610e61565b6040517fa1d04b3900000000000000000000000000000000000000000000000000000000815260040160405180910390fd5b61114e676efcbaf433623d3860c01b610e61565b6111626772b0842275f8214760c01b610e61565b6000600360006101000a81548160ff02191690836001811115611188576111876112a6565b5b02179055506111a167b63d6ef46d6b2ad660c01b610e61565b6111b567058c23e44cbb2deb60c01b610e61565b8173ffffffffffffffffffffffffffffffffffffffff167f5b690ec4a06fe979403046eaeea5b3ce38524683c3001f662c8b5a829632f7df60405160405180910390a25050505050565b828054828255906000526020600020908101928215611278579160200282015b828111156112775782518260006101000a81548173ffffffffffffffffffffffffffffffffffffffff021916908373ffffffffffffffffffffffffffffffffffffffff1602179055509160200191906001019061121f565b5b5090506112859190611289565b5090565b5b808211156112a257600081600090555060010161128a565b5090565b7f4e487b7100000000000000000000000000000000000000000000000000000000600052602160045260246000fd5b600281106112e6576112e56112a6565b5b50565b60008190506112f7826112d5565b919050565b6000611307826112e9565b9050919050565b611317816112fc565b82525050565b6000602082019050611332600083018461130e565b92915050565b6000604051905090565b600080fd5b600080fd5b6000819050919050565b61135f8161134c565b811461136a57600080fd5b50565b60008135905061137c81611356565b92915050565b600080fd5b6000601f19601f8301169050919050565b7f4e487b7100000000000000000000000000000000000000000000000000000000600052604160045260246000fd5b6113d082611387565b810181811067ffffffffffffffff821117156113ef576113ee611398565b5b80604052505050565b6000611402611338565b905061140e82826113c7565b919050565b600067ffffffffffffffff82111561142e5761142d611398565b5b602082029050602081019050919050565b600080fd5b600061145761145284611413565b6113f8565b9050808382526020820190506020840283018581111561147a5761147961143f565b5b835b818110156114a3578061148f888261136d565b84526020840193505060208101905061147c565b5050509392505050565b600082601f8301126114c2576114c1611382565b5b81356114d2848260208601611444565b91505092915050565b600080604083850312156114f2576114f1611342565b5b60006115008582860161136d565b925050602083013567ffffffffffffffff81111561152157611520611347565b5b61152d858286016114ad565b9150509250929050565b6115408161134c565b82525050565b600060208201905061155b6000830184611537565b92915050565b600080fd5b60008083601f84011261157c5761157b611382565b5b8235905067ffffffffffffffff81111561159957611598611561565b5b6020830191508360018202830111156115b5576115b461143f565b5b9250929050565b600080602083850312156115d3576115d2611342565b5b600083013567ffffffffffffffff8111156115f1576115f0611347565b5b6115fd85828601611566565b92509250509250929050565b600073ffffffffffffffffffffffffffffffffffffffff82169050919050565b600061163482611609565b9050919050565b61164481611629565b82525050565b600060208201905061165f600083018461163b565b92915050565b600080fd5b600067ffffffffffffffff82111561168557611684611398565b5b61168e82611387565b9050602081019050919050565b82818337600083830152505050565b60006116bd6116b88461166a565b6113f8565b9050828152602081018484840111156116d9576116d8611665565b5b6116e484828561169b565b509392505050565b600082601f83011261170157611700611382565b5b81356117118482602086016116aa565b91505092915050565b6000602082840312156117305761172f611342565b5b600082013567ffffffffffffffff81111561174e5761174d611347565b5b61175a848285016116ec565b91505092915050565b60008115159050919050565b61177881611763565b82525050565b600081519050919050565b600082825260208201905092915050565b60005b838110156117b857808201518184015260208101905061179d565b60008484015250505050565b60006117cf8261177e565b6117d98185611789565b93506117e981856020860161179a565b6117f281611387565b840191505092915050565b6000604082019050611812600083018561176f565b818103602083015261182481846117c4565b90509392505050565b600067ffffffffffffffff82169050919050565b61184a8161182d565b82525050565b60006020820190506118656000830184611841565b92915050565b60006020828403121561188157611880611342565b5b600061188f8482850161136d565b91505092915050565b60006040820190506118ad600083018561163b565b6118ba602083018461163b565b9392505050565b60006060820190506118d66000830186611537565b6118e36020830185611537565b6118f06040830184611537565b949350505050565b6000819050919050565b61190b816118f8565b82525050565b600061ffff82169050919050565b61192881611911565b82525050565b600063ffffffff82169050919050565b6119478161192e565b82525050565b600060a0820190506119626000830188611902565b61196f6020830187611841565b61197c604083018661191f565b611989606083018561193e565b611996608083018461193e565b9695505050505050565b6000815190506119af81611356565b92915050565b6000602082840312156119cb576119ca611342565b5b60006119d9848285016119a0565b91505092915050565b7f4e487b7100000000000000000000000000000000000000000000000000000000600052601160045260246000fd5b6000611a1c8261134c565b9150611a278361134c565b9250828203905081811115611a3f57611a3e6119e2565b5b92915050565b7f4e487b7100000000000000000000000000000000000000000000000000000000600052603260045260246000fd5b7f4e487b7100000000000000000000000000000000000000000000000000000000600052601260045260246000fd5b6000611aae8261134c565b9150611ab98361134c565b925082611ac957611ac8611a74565b5b828206905092915050565b600081905092915050565b50565b6000611aef600083611ad4565b9150611afa82611adf565b600082019050919050565b6000611b1082611ae2565b915081905091905056fea26469706673582212206869b500a9aac5e74111f8bf82d66e241175cfd4a13d008f0ef0a69cca898d2264736f6c63430008110033",
  "linkReferences": {},
  "deployedLinkReferences": {}
}