{
  "_format": "hh-sol-artifact-1",
  "contractName": "Raffle",
  "sourceName": "contracts/Raffle.sol",
  "abi": [
    {
      "inputs": [
        {
          "internalType": "address",
          "name": "vrfCoordinatorV2",
          "type": "address"
        },
        {
          "internalType": "uint256",
          "name": "enteranceFee",
          "type": "uint256"
        },
        {
          "internalType": "bytes32",
          "name": "gasLane",
          "type": "bytes32"
        },
        {
          "internalType": "uint64",
          "name": "subscriptionId",
          "type": "uint64"
        },
        {
          "internalType": "uint32",
          "name": "callbackGasLimit",
          "type": "uint32"
        },
        {
          "internalType": "uint256",
          "name": "interval",
          "type": "uint256"
        }
      ],
      "stateMutability": "nonpayable",
      "type": "constructor"
    },
    {
      "inputs": [
        {
          "internalType": "address",
          "name": "have",
          "type": "address"
        },
        {
          "internalType": "address",
          "name": "want",
          "type": "address"
        }
      ],
      "name": "OnlyCoordinatorCanFulfill",
      "type": "error"
    },
    {
      "inputs": [],
      "name": "Raffle__NotEnoughEthEntered",
      "type": "error"
    },
    {
      "inputs": [],
      "name": "Raffle__RaffleNotOpen",
      "type": "error"
    },
    {
      "inputs": [],
      "name": "Raffle__TransferFailed",
      "type": "error"
    },
    {
      "inputs": [
        {
          "internalType": "uint256",
          "name": "currentBalance",
          "type": "uint256"
        },
        {
          "internalType": "uint256",
          "name": "numPlayers",
          "type": "uint256"
        },
        {
          "internalType": "uint256",
          "name": "raffleState",
          "type": "uint256"
        }
      ],
      "name": "Raffle__UpkeepNotNeeded",
      "type": "error"
    },
    {
      "anonymous": false,
      "inputs": [
        {
          "indexed": true,
          "internalType": "address",
          "name": "player",
          "type": "address"
        }
      ],
      "name": "RaffleEntered",
      "type": "event"
    },
    {
      "anonymous": false,
      "inputs": [
        {
          "indexed": true,
          "internalType": "uint256",
          "name": "requestId",
          "type": "uint256"
        }
      ],
      "name": "RequestedRaffleWinner",
      "type": "event"
    },
    {
      "anonymous": false,
      "inputs": [
        {
          "indexed": true,
          "internalType": "address",
          "name": "player",
          "type": "address"
        }
      ],
      "name": "WinnerPicked",
      "type": "event"
    },
    {
      "inputs": [
        {
          "internalType": "bytes",
          "name": "",
          "type": "bytes"
        }
      ],
      "name": "checkUpkeep",
      "outputs": [
        {
          "internalType": "bool",
          "name": "upkeepNeeded",
          "type": "bool"
        },
        {
          "internalType": "bytes",
          "name": "",
          "type": "bytes"
        }
      ],
      "stateMutability": "view",
      "type": "function"
    },
    {
      "inputs": [],
      "name": "enterRaffle",
      "outputs": [],
      "stateMutability": "payable",
      "type": "function"
    },
    {
      "inputs": [],
      "name": "getEnteranceFee",
      "outputs": [
        {
          "internalType": "uint256",
          "name": "",
          "type": "uint256"
        }
      ],
      "stateMutability": "view",
      "type": "function"
    },
    {
      "inputs": [],
      "name": "getLatestTimeStamp",
      "outputs": [
        {
          "internalType": "uint256",
          "name": "",
          "type": "uint256"
        }
      ],
      "stateMutability": "view",
      "type": "function"
    },
    {
      "inputs": [],
      "name": "getNumOfPlayers",
      "outputs": [
        {
          "internalType": "uint256",
          "name": "",
          "type": "uint256"
        }
      ],
      "stateMutability": "view",
      "type": "function"
    },
    {
      "inputs": [],
      "name": "getNumWords",
      "outputs": [
        {
          "internalType": "uint256",
          "name": "",
          "type": "uint256"
        }
      ],
      "stateMutability": "pure",
      "type": "function"
    },
    {
      "inputs": [
        {
          "internalType": "uint256",
          "name": "index",
          "type": "uint256"
        }
      ],
      "name": "getPlayer",
      "outputs": [
        {
          "internalType": "address",
          "name": "",
          "type": "address"
        }
      ],
      "stateMutability": "view",
      "type": "function"
    },
    {
      "inputs": [],
      "name": "getRecentWinner",
      "outputs": [
        {
          "internalType": "address",
          "name": "",
          "type": "address"
        }
      ],
      "stateMutability": "view",
      "type": "function"
    },
    {
      "inputs": [
        {
          "internalType": "bytes",
          "name": "",
          "type": "bytes"
        }
      ],
      "name": "performUpkeep",
      "outputs": [],
      "stateMutability": "nonpayable",
      "type": "function"
    },
    {
      "inputs": [
        {
          "internalType": "uint256",
          "name": "requestId",
          "type": "uint256"
        },
        {
          "internalType": "uint256[]",
          "name": "randomWords",
          "type": "uint256[]"
        }
      ],
      "name": "rawFulfillRandomWords",
      "outputs": [],
      "stateMutability": "nonpayable",
      "type": "function"
    }
  ],
  "bytecode": "0x6101606040523480156200001257600080fd5b50604051620016d9380380620016d9833981810160405281019062000038919062000294565b858073ffffffffffffffffffffffffffffffffffffffff1660808173ffffffffffffffffffffffffffffffffffffffff1681525050508573ffffffffffffffffffffffffffffffffffffffff1660a08173ffffffffffffffffffffffffffffffffffffffff16815250508360e081815250508461014081815250508267ffffffffffffffff1660c08167ffffffffffffffff16815250508163ffffffff166101008163ffffffff16815250506000600360006101000a81548160ff021916908360018111156200010d576200010c62000330565b5b0217905550426000819055508061012081815250505050505050506200035f565b600080fd5b600073ffffffffffffffffffffffffffffffffffffffff82169050919050565b6000620001608262000133565b9050919050565b620001728162000153565b81146200017e57600080fd5b50565b600081519050620001928162000167565b92915050565b6000819050919050565b620001ad8162000198565b8114620001b957600080fd5b50565b600081519050620001cd81620001a2565b92915050565b6000819050919050565b620001e881620001d3565b8114620001f457600080fd5b50565b6000815190506200020881620001dd565b92915050565b600067ffffffffffffffff82169050919050565b6200022d816200020e565b81146200023957600080fd5b50565b6000815190506200024d8162000222565b92915050565b600063ffffffff82169050919050565b6200026e8162000253565b81146200027a57600080fd5b50565b6000815190506200028e8162000263565b92915050565b60008060008060008060c08789031215620002b457620002b36200012e565b5b6000620002c489828a0162000181565b9650506020620002d789828a01620001bc565b9550506040620002ea89828a01620001f7565b9450506060620002fd89828a016200023c565b93505060806200031089828a016200027d565b92505060a06200032389828a01620001bc565b9150509295509295509295565b7f4e487b7100000000000000000000000000000000000000000000000000000000600052602160045260246000fd5b60805160a05160c05160e051610100516101205161014051611311620003c860003960008181610306015261069b0152600061071e015260006105b4015260006105700152600061059101526000610534015260008181610246015261029a01526113116000f3fe6080604052600436106100915760003560e01c8063535bf50f11610059578063535bf50f1461014857806353a2c19a14610173578063565429de1461019e5780636e04ff0d146101c9578063e55ae4e81461020757610091565b80631fe543e3146100965780632cfcc539146100bf578063320229eb146100c95780634585e33b146100f4578063473f1ddc1461011d575b600080fd5b3480156100a257600080fd5b506100bd60048036038101906100b89190610c88565b610244565b005b6100c7610304565b005b3480156100d557600080fd5b506100de610473565b6040516100eb9190610cf3565b60405180910390f35b34801561010057600080fd5b5061011b60048036038101906101169190610d69565b61047c565b005b34801561012957600080fd5b5061013261066d565b60405161013f9190610df7565b60405180910390f35b34801561015457600080fd5b5061015d610697565b60405161016a9190610cf3565b60405180910390f35b34801561017f57600080fd5b506101886106bf565b6040516101959190610cf3565b60405180910390f35b3480156101aa57600080fd5b506101b36106ce565b6040516101c09190610cf3565b60405180910390f35b3480156101d557600080fd5b506101f060048036038101906101eb9190610ec7565b6106db565b6040516101fe929190610faa565b60405180910390f35b34801561021357600080fd5b5061022e60048036038101906102299190610fda565b6107c3565b60405161023b9190610df7565b60405180910390f35b7f000000000000000000000000000000000000000000000000000000000000000073ffffffffffffffffffffffffffffffffffffffff163373ffffffffffffffffffffffffffffffffffffffff16146102f657337f00000000000000000000000000000000000000000000000000000000000000006040517f1cf993f40000000000000000000000000000000000000000000000000000000081526004016102ed929190611007565b60405180910390fd5b610300828261080b565b5050565b7f000000000000000000000000000000000000000000000000000000000000000034101561035e576040517f066d781f00000000000000000000000000000000000000000000000000000000815260040160405180910390fd5b6000600181111561037257610371611030565b5b600360009054906101000a900460ff16600181111561039457610393611030565b5b146103cb576040517fd24a271400000000000000000000000000000000000000000000000000000000815260040160405180910390fd5b6002339080600181540180825580915050600190039060005260206000200160009091909190916101000a81548173ffffffffffffffffffffffffffffffffffffffff021916908373ffffffffffffffffffffffffffffffffffffffff1602179055503373ffffffffffffffffffffffffffffffffffffffff167f634f3211e3a4e43fee5a21ad9f87ca153b300fc78b1c557a2057dbe9c63bcb4760405160405180910390a2565b60008054905090565b6000610496604051806020016040528060008152506106db565b509050806105055747600280549050600360009054906101000a900460ff1660018111156104c7576104c6611030565b5b6040517f584327aa0000000000000000000000000000000000000000000000000000000081526004016104fc9392919061105f565b60405180910390fd5b6001600360006101000a81548160ff0219169083600181111561052b5761052a611030565b5b021790555060007f000000000000000000000000000000000000000000000000000000000000000073ffffffffffffffffffffffffffffffffffffffff16635d3b1d307f00000000000000000000000000000000000000000000000000000000000000007f000000000000000000000000000000000000000000000000000000000000000060037f000000000000000000000000000000000000000000000000000000000000000060016040518663ffffffff1660e01b81526004016105f595949392919061110e565b6020604051808303816000875af1158015610614573d6000803e3d6000fd5b505050506040513d601f19601f820116820180604052508101906106389190611176565b9050807fcd6e45c8998311cab7e9d4385596cac867e20a0587194b954fa3a731c93ce78b60405160405180910390a250505050565b6000600160009054906101000a900473ffffffffffffffffffffffffffffffffffffffff16905090565b60007f0000000000000000000000000000000000000000000000000000000000000000905090565b6000600163ffffffff16905090565b6000600280549050905090565b600060606000600360009054906101000a900460ff16600181111561070357610702611030565b5b6000600181111561071757610716611030565b5b14905060007f00000000000000000000000000000000000000000000000000000000000000006000544261074b91906111d2565b1190506000806002805490501190506000804711905083801561076b5750825b80156107745750815b801561077d5750805b9550856040518060400160405280600381526020017f30783000000000000000000000000000000000000000000000000000000000008152509550955050505050915091565b6000600282815481106107d9576107d8611206565b5b9060005260206000200160009054906101000a900473ffffffffffffffffffffffffffffffffffffffff169050919050565b60006002805490508260008151811061082757610826611206565b5b60200260200101516108399190611264565b905060006002828154811061085157610850611206565b5b9060005260206000200160009054906101000a900473ffffffffffffffffffffffffffffffffffffffff16905080600160006101000a81548173ffffffffffffffffffffffffffffffffffffffff021916908373ffffffffffffffffffffffffffffffffffffffff160217905550600067ffffffffffffffff8111156108da576108d9610b45565b5b6040519080825280602002602001820160405280156109085781602001602082028036833780820191505090505b506002908051906020019061091e929190610a3e565b504260008190555060008173ffffffffffffffffffffffffffffffffffffffff164760405161094c906112c6565b60006040518083038185875af1925050503d8060008114610989576040519150601f19603f3d011682016040523d82523d6000602084013e61098e565b606091505b50509050806109c9576040517fa1d04b3900000000000000000000000000000000000000000000000000000000815260040160405180910390fd5b6000600360006101000a81548160ff021916908360018111156109ef576109ee611030565b5b02179055508173ffffffffffffffffffffffffffffffffffffffff167f5b690ec4a06fe979403046eaeea5b3ce38524683c3001f662c8b5a829632f7df60405160405180910390a25050505050565b828054828255906000526020600020908101928215610ab7579160200282015b82811115610ab65782518260006101000a81548173ffffffffffffffffffffffffffffffffffffffff021916908373ffffffffffffffffffffffffffffffffffffffff16021790555091602001919060010190610a5e565b5b509050610ac49190610ac8565b5090565b5b80821115610ae1576000816000905550600101610ac9565b5090565b6000604051905090565b600080fd5b600080fd5b6000819050919050565b610b0c81610af9565b8114610b1757600080fd5b50565b600081359050610b2981610b03565b92915050565b600080fd5b6000601f19601f8301169050919050565b7f4e487b7100000000000000000000000000000000000000000000000000000000600052604160045260246000fd5b610b7d82610b34565b810181811067ffffffffffffffff82111715610b9c57610b9b610b45565b5b80604052505050565b6000610baf610ae5565b9050610bbb8282610b74565b919050565b600067ffffffffffffffff821115610bdb57610bda610b45565b5b602082029050602081019050919050565b600080fd5b6000610c04610bff84610bc0565b610ba5565b90508083825260208201905060208402830185811115610c2757610c26610bec565b5b835b81811015610c505780610c3c8882610b1a565b845260208401935050602081019050610c29565b5050509392505050565b600082601f830112610c6f57610c6e610b2f565b5b8135610c7f848260208601610bf1565b91505092915050565b60008060408385031215610c9f57610c9e610aef565b5b6000610cad85828601610b1a565b925050602083013567ffffffffffffffff811115610cce57610ccd610af4565b5b610cda85828601610c5a565b9150509250929050565b610ced81610af9565b82525050565b6000602082019050610d086000830184610ce4565b92915050565b600080fd5b60008083601f840112610d2957610d28610b2f565b5b8235905067ffffffffffffffff811115610d4657610d45610d0e565b5b602083019150836001820283011115610d6257610d61610bec565b5b9250929050565b60008060208385031215610d8057610d7f610aef565b5b600083013567ffffffffffffffff811115610d9e57610d9d610af4565b5b610daa85828601610d13565b92509250509250929050565b600073ffffffffffffffffffffffffffffffffffffffff82169050919050565b6000610de182610db6565b9050919050565b610df181610dd6565b82525050565b6000602082019050610e0c6000830184610de8565b92915050565b600080fd5b600067ffffffffffffffff821115610e3257610e31610b45565b5b610e3b82610b34565b9050602081019050919050565b82818337600083830152505050565b6000610e6a610e6584610e17565b610ba5565b905082815260208101848484011115610e8657610e85610e12565b5b610e91848285610e48565b509392505050565b600082601f830112610eae57610ead610b2f565b5b8135610ebe848260208601610e57565b91505092915050565b600060208284031215610edd57610edc610aef565b5b600082013567ffffffffffffffff811115610efb57610efa610af4565b5b610f0784828501610e99565b91505092915050565b60008115159050919050565b610f2581610f10565b82525050565b600081519050919050565b600082825260208201905092915050565b60005b83811015610f65578082015181840152602081019050610f4a565b60008484015250505050565b6000610f7c82610f2b565b610f868185610f36565b9350610f96818560208601610f47565b610f9f81610b34565b840191505092915050565b6000604082019050610fbf6000830185610f1c565b8181036020830152610fd18184610f71565b90509392505050565b600060208284031215610ff057610fef610aef565b5b6000610ffe84828501610b1a565b91505092915050565b600060408201905061101c6000830185610de8565b6110296020830184610de8565b9392505050565b7f4e487b7100000000000000000000000000000000000000000000000000000000600052602160045260246000fd5b60006060820190506110746000830186610ce4565b6110816020830185610ce4565b61108e6040830184610ce4565b949350505050565b6000819050919050565b6110a981611096565b82525050565b600067ffffffffffffffff82169050919050565b6110cc816110af565b82525050565b600061ffff82169050919050565b6110e9816110d2565b82525050565b600063ffffffff82169050919050565b611108816110ef565b82525050565b600060a08201905061112360008301886110a0565b61113060208301876110c3565b61113d60408301866110e0565b61114a60608301856110ff565b61115760808301846110ff565b9695505050505050565b60008151905061117081610b03565b92915050565b60006020828403121561118c5761118b610aef565b5b600061119a84828501611161565b91505092915050565b7f4e487b7100000000000000000000000000000000000000000000000000000000600052601160045260246000fd5b60006111dd82610af9565b91506111e883610af9565b9250828203905081811115611200576111ff6111a3565b5b92915050565b7f4e487b7100000000000000000000000000000000000000000000000000000000600052603260045260246000fd5b7f4e487b7100000000000000000000000000000000000000000000000000000000600052601260045260246000fd5b600061126f82610af9565b915061127a83610af9565b92508261128a57611289611235565b5b828206905092915050565b600081905092915050565b50565b60006112b0600083611295565b91506112bb826112a0565b600082019050919050565b60006112d1826112a3565b915081905091905056fea2646970667358221220ede42753974c5d2c32bf8b493eeaf28eee52a5b2735b07ac65b403a612b9d71e64736f6c63430008110033",
  "linkReferences": {},
  "deployedLinkReferences": {}
}